{
  "contractName": "ExternalStorage",
  "abi": [
    {
      "constant": true,
      "inputs": [
        {
          "name": "",
          "type": "uint256"
        }
      ],
      "name": "users",
      "outputs": [
        {
          "name": "name",
          "type": "string"
        },
        {
          "name": "description",
          "type": "string"
        },
        {
          "name": "picture",
          "type": "string"
        },
        {
          "name": "index",
          "type": "uint256"
        }
      ],
      "payable": false,
      "stateMutability": "view",
      "type": "function"
    },
    {
      "constant": false,
      "inputs": [
        {
          "name": "_name",
          "type": "string"
        },
        {
          "name": "_description",
          "type": "string"
        },
        {
          "name": "_picture",
          "type": "string"
        }
      ],
      "name": "createUser",
      "outputs": [],
      "payable": false,
      "stateMutability": "nonpayable",
      "type": "function"
    },
    {
      "constant": true,
      "inputs": [
        {
          "name": "",
          "type": "address"
        }
      ],
      "name": "UserIndexToOwner",
      "outputs": [
        {
          "name": "",
          "type": "uint256"
        }
      ],
      "payable": false,
      "stateMutability": "view",
      "type": "function"
    },
    {
      "constant": true,
      "inputs": [
        {
          "name": "",
          "type": "address"
        }
      ],
      "name": "ArticleIndexToOwner",
      "outputs": [
        {
          "name": "",
          "type": "uint256"
        }
      ],
      "payable": false,
      "stateMutability": "view",
      "type": "function"
    },
    {
      "constant": true,
      "inputs": [],
      "name": "owner",
      "outputs": [
        {
          "name": "",
          "type": "address"
        }
      ],
      "payable": false,
      "stateMutability": "view",
      "type": "function"
    },
    {
      "constant": true,
      "inputs": [
        {
          "name": "_UserId",
          "type": "uint256"
        }
      ],
      "name": "getUser",
      "outputs": [
        {
          "name": "_name",
          "type": "string"
        },
        {
          "name": "_description",
          "type": "string"
        },
        {
          "name": "_picture",
          "type": "string"
        },
        {
          "name": "_index",
          "type": "uint256"
        }
      ],
      "payable": false,
      "stateMutability": "view",
      "type": "function"
    },
    {
      "constant": true,
      "inputs": [
        {
          "name": "",
          "type": "uint256"
        }
      ],
      "name": "articles",
      "outputs": [
        {
          "name": "title",
          "type": "string"
        },
        {
          "name": "body",
          "type": "string"
        },
        {
          "name": "genre",
          "type": "string"
        },
        {
          "name": "picture",
          "type": "string"
        },
        {
          "name": "likes",
          "type": "uint256"
        },
        {
          "name": "index",
          "type": "uint256"
        }
      ],
      "payable": false,
      "stateMutability": "view",
      "type": "function"
    },
    {
      "constant": false,
      "inputs": [
        {
          "name": "newOwner",
          "type": "address"
        }
      ],
      "name": "transferOwnership",
      "outputs": [],
      "payable": false,
      "stateMutability": "nonpayable",
      "type": "function"
    }
  ],
  "bytecode": "0x6060604052336000806101000a81548173ffffffffffffffffffffffffffffffffffffffff021916908373ffffffffffffffffffffffffffffffffffffffff160217905550610f77806100536000396000f30060606040526004361061008e576000357c0100000000000000000000000000000000000000000000000000000000900463ffffffff168063365b98b21461009357806359ae069b1461026557806362a35c5b1461034857806387f2f478146103955780638da5cb5b146103e2578063b0467deb14610437578063edcfafe6146105b2578063f2fde38b14610814575b600080fd5b341561009e57600080fd5b6100b4600480803590602001909190505061084d565b6040518080602001806020018060200185815260200184810384528881815460018160011615610100020316600290048152602001915080546001816001161561010002031660029004801561014b5780601f106101205761010080835404028352916020019161014b565b820191906000526020600020905b81548152906001019060200180831161012e57829003601f168201915b50508481038352878181546001816001161561010002031660029004815260200191508054600181600116156101000203166002900480156101ce5780601f106101a3576101008083540402835291602001916101ce565b820191906000526020600020905b8154815290600101906020018083116101b157829003601f168201915b50508481038252868181546001816001161561010002031660029004815260200191508054600181600116156101000203166002900480156102515780601f1061022657610100808354040283529160200191610251565b820191906000526020600020905b81548152906001019060200180831161023457829003601f168201915b505097505050505050505060405180910390f35b341561027057600080fd5b610346600480803590602001908201803590602001908080601f0160208091040260200160405190810160405280939291908181526020018383808284378201915050505050509190803590602001908201803590602001908080601f0160208091040260200160405190810160405280939291908181526020018383808284378201915050505050509190803590602001908201803590602001908080601f01602080910402602001604051908101604052809392919081815260200183838082843782019150505050505091905050610889565b005b341561035357600080fd5b61037f600480803573ffffffffffffffffffffffffffffffffffffffff16906020019091905050610997565b6040518082815260200191505060405180910390f35b34156103a057600080fd5b6103cc600480803573ffffffffffffffffffffffffffffffffffffffff169060200190919050506109af565b6040518082815260200191505060405180910390f35b34156103ed57600080fd5b6103f56109c7565b604051808273ffffffffffffffffffffffffffffffffffffffff1673ffffffffffffffffffffffffffffffffffffffff16815260200191505060405180910390f35b341561044257600080fd5b61045860048080359060200190919050506109ec565b60405180806020018060200180602001858152602001848103845288818151815260200191508051906020019080838360005b838110156104a657808201518184015260208101905061048b565b50505050905090810190601f1680156104d35780820380516001836020036101000a031916815260200191505b50848103835287818151815260200191508051906020019080838360005b8381101561050c5780820151818401526020810190506104f1565b50505050905090810190601f1680156105395780820380516001836020036101000a031916815260200191505b50848103825286818151815260200191508051906020019080838360005b83811015610572578082015181840152602081019050610557565b50505050905090810190601f16801561059f5780820380516001836020036101000a031916815260200191505b5097505050505050505060405180910390f35b34156105bd57600080fd5b6105d36004808035906020019091905050610c56565b604051808060200180602001806020018060200187815260200186815260200185810385528b8181546001816001161561010002031660029004815260200191508054600181600116156101000203166002900480156106745780601f1061064957610100808354040283529160200191610674565b820191906000526020600020905b81548152906001019060200180831161065757829003601f168201915b505085810384528a8181546001816001161561010002031660029004815260200191508054600181600116156101000203166002900480156106f75780601f106106cc576101008083540402835291602001916106f7565b820191906000526020600020905b8154815290600101906020018083116106da57829003601f168201915b505085810383528981815460018160011615610100020316600290048152602001915080546001816001161561010002031660029004801561077a5780601f1061074f5761010080835404028352916020019161077a565b820191906000526020600020905b81548152906001019060200180831161075d57829003601f168201915b50508581038252888181546001816001161561010002031660029004815260200191508054600181600116156101000203166002900480156107fd5780601f106107d2576101008083540402835291602001916107fd565b820191906000526020600020905b8154815290600101906020018083116107e057829003601f168201915b50509a505050505050505050505060405180910390f35b341561081f57600080fd5b61084b600480803573ffffffffffffffffffffffffffffffffffffffff16906020019091905050610c9d565b005b60018181548110151561085c57fe5b90600052602060002090600402016000915090508060000190806001019080600201908060030154905084565b600360008154809291906001019190505550600180548060010182816108af9190610d72565b9160005260206000209060040201600060806040519081016040528087815260200186815260200185815260200160035481525090919091506000820151816000019080519060200190610904929190610da4565b506020820151816001019080519060200190610921929190610da4565b50604082015181600201908051906020019061093e929190610da4565b5060608201518160030155505050600354600560003373ffffffffffffffffffffffffffffffffffffffff1673ffffffffffffffffffffffffffffffffffffffff16815260200190815260200160002081905550505050565b60056020528060005260406000206000915090505481565b60066020528060005260406000206000915090505481565b6000809054906101000a900473ffffffffffffffffffffffffffffffffffffffff1681565b6109f4610e24565b6109fc610e24565b610a04610e24565b6000610a0e610e38565b600186815481101515610a1d57fe5b906000526020600020906004020160806040519081016040529081600082018054600181600116156101000203166002900480601f016020809104026020016040519081016040528092919081815260200182805460018160011615610100020316600290048015610ad05780601f10610aa557610100808354040283529160200191610ad0565b820191906000526020600020905b815481529060010190602001808311610ab357829003601f168201915b50505050508152602001600182018054600181600116156101000203166002900480601f016020809104026020016040519081016040528092919081815260200182805460018160011615610100020316600290048015610b725780601f10610b4757610100808354040283529160200191610b72565b820191906000526020600020905b815481529060010190602001808311610b5557829003601f168201915b50505050508152602001600282018054600181600116156101000203166002900480601f016020809104026020016040519081016040528092919081815260200182805460018160011615610100020316600290048015610c145780601f10610be957610100808354040283529160200191610c14565b820191906000526020600020905b815481529060010190602001808311610bf757829003601f168201915b50505050508152602001600382015481525050905080600001518160200151826040015183606001518393508292508191509450945094509450509193509193565b600281815481101515610c6557fe5b906000526020600020906006020160009150905080600001908060010190806002019080600301908060040154908060050154905086565b6000809054906101000a900473ffffffffffffffffffffffffffffffffffffffff1673ffffffffffffffffffffffffffffffffffffffff163373ffffffffffffffffffffffffffffffffffffffff16141515610cf857600080fd5b600073ffffffffffffffffffffffffffffffffffffffff168173ffffffffffffffffffffffffffffffffffffffff16141515610d6f57806000806101000a81548173ffffffffffffffffffffffffffffffffffffffff021916908373ffffffffffffffffffffffffffffffffffffffff1602179055505b50565b815481835581811511610d9f57600402816004028360005260206000209182019101610d9e9190610e73565b5b505050565b828054600181600116156101000203166002900490600052602060002090601f016020900481019282601f10610de557805160ff1916838001178555610e13565b82800160010185558215610e13579182015b82811115610e12578251825591602001919060010190610df7565b5b509050610e209190610eca565b5090565b602060405190810160405280600081525090565b608060405190810160405280610e4c610eef565b8152602001610e59610eef565b8152602001610e66610eef565b8152602001600081525090565b610ec791905b80821115610ec35760008082016000610e929190610f03565b600182016000610ea29190610f03565b600282016000610eb29190610f03565b600382016000905550600401610e79565b5090565b90565b610eec91905b80821115610ee8576000816000905550600101610ed0565b5090565b90565b602060405190810160405280600081525090565b50805460018160011615610100020316600290046000825580601f10610f295750610f48565b601f016020900490600052602060002090810190610f479190610eca565b5b505600a165627a7a723058209eebda7b2189542d37d6ef8de184a80d20a3dda13d962b10367a2cd0dcd3aff20029",
  "source": "pragma solidity^0.4.2;\n\nimport \"./Ownable.sol\";\n\ncontract ExternalStorage is Ownable {\n\n  //Events for contracts\n\n  //We are creating the data structure for a new user\n  struct User {\n    string name;\n    string description;\n    string picture;\n    uint index;\n  }\n\n  //We are creating the data structure for a new article\n  struct Article {\n    string title;\n    string body;\n    string genre;\n    string picture;\n    uint likes;\n    uint index;\n  }\n\n  //arrays where we will store the stuct of the users and articles\n  User[] public users;\n  Article[] public articles;\n  uint userCounter;\n  uint articleCounter;\n\n  //mapping the owner of the user and the owner of the article\n  mapping (address => uint) public UserIndexToOwner;\n  mapping (address => uint) public ArticleIndexToOwner;\n\n  function createUser(string _name, string _description, string _picture) public {\n    //making sure that the owner only has one account\n    /* require(UserIndexToOwner[msg.sender] == 0); */\n    //setting array index for the new user\n    userCounter++;\n    users.push(User(_name, _description, _picture, userCounter));\n    //mapping the new user to the sender\n    UserIndexToOwner[msg.sender] = userCounter;\n  }\n\n  /* function createArticle(string _title, string _body, string _genre, string _picture) public {\n    //initializing likes to 0\n    uint _likes = 0;\n    uint _index;\n    if (ArticleIndexToOwner.length == 0) {\n      _index = 0;\n    } else {\n      _index = ArticleIndexToOwner.length;\n    }\n    //setting array index for the new article\n    uint id = articles.push(Article(_title, _body, _genre, _picture, _likes, _index));\n    //mapping the new article to the sender\n    ArticleIndexToOwner[_index] = msg.sender;\n  } */\n\n  function getUser(uint _UserId) public constant returns (string _name, string _description, string _picture, uint _index) {\n    //get user from array and store it to memory\n    User memory u = users[_UserId];\n    //return the values of the user\n    return(u.name, u.description, u.picture, u.index);\n  }\n\n  /* function editUser(uint _UserId, string _name, string _description, string _picture) public {\n    //check to see that sender is ther user\n    require(UserIndexToOwner[_UserId] == msg.sender);\n    User u = users[_UserId];\n    u.name = _name;\n    u.description = _description;\n    u.picture = _picture;\n  }\n\n  function deleteUser(uint _UserId) public{\n    //check to see that sender is ther user\n    require(UserIndexToOwner[_UserId] == msg.sender);\n    //delete the user\n    delete users[_UserId];\n  }\n\n  function getArticle(uint _ArticleId) public constant {\n    Article memory a = articles[_ArticleId];\n  }\n\n  function editArticle(uint _ArticleId) public {\n    Article memory a = articles[_ArticleId];\n  }\n\n  function deleteArticle(uint _ArticleId) public {\n    Article memory a = articles[_ArticleId];\n  } */\n\n  //OnlyOwner Functions\n  /* function numberOfUsers() public onlyOwner returns (uint number) {\n    uint number = users.length;\n    return number;\n  }\n\n  function numberofArticle() public onlyOwner returns (uint number) {\n    uint number = articles.length;\n    return number;\n  } */\n\n}\n",
  "sourcePath": "/Users/Justin/Desktop/2_cents/contracts/ExternalStorage.sol",
  "compiler": {
    "name": "solc",
    "version": "0.4.18+commit.9cf6e910.Emscripten.clang"
  },
  "schemaVersion": "1.0.1",
  "updatedAt": "2017-12-31T22:14:32.654Z"
}